:100000000C9446000C9465000C9465000C946500FB
:100010000C9465000C9465000C9465000C946500CC
:100020000C9465000C9465000C9465000C946500BC
:100030000C9465000C9465000C9465000C946500AC
:100040000C9465000C9465000C9465000C9465009C
:100050000C9465000C9465000C9465000C9465008C
:100060000C9465000C9465000C9465000C9465007C
:100070000C9465000C9465000C9465000C9465006C
:100080000C9465000C9465000C94650011241FBE4F
:10009000CFEFD0E1DEBFCDBF11E0A0E0B1E0EAE6F6
:1000A000F1E000E00BBF02C007900D92A034B10751
:1000B000D9F711E0A0E4B1E001C01D92A034B1076E
:1000C000E1F70E94A6000C94B3000C94000028E114
:1000D0002AB996E8909395001BB81092900087E695
:1000E00089B920939A0090939D0010929B001092E2
:1000F00098008093990008955D9BFECF8CB9089578
:10010000CF93DF93EC018881882331F021960E9400
:100110007C0089918823D9F7DF91CF910895EBE98D
:10012000F0E0908195FFFDCF80939C000895CF93E0
:10013000DF93EC018881882331F021960E948F00A3
:1001400089918823D9F7DF91CF9108950E946700A4
:10015000C0E0D1E001E211E0CE010E948000C801C0
:0A0160000E949700F9CFF894FFCF3A
:10016A004368616E6E656C2030204578706C6F72E2
:10017A0065456D6265646465642E636F6D200D0A62
:10018A00004368616E6E656C2031204C6574732083
:10019A006275696C642E2E2E2E2020200D0A000016
:00000001FF
